:020000041000EA
:1000000000B5324B212058609868022188439860DF
:10001000D860186158612E4B002199600221596106
:100020000121F02299502B49196001219960352056
:1000300000F044F80222904214D00621196600F024
:1000400034F8196E01211966002018661A6600F04E
:100050002CF8196E196E196E052000F02FF8012189
:100060000842F9D1002199601B49196000215960AB
:100070001A491B48016001219960EB211966A021F2
:10008000196600F012F800219960164914480160C1
:100090000121996001BC002800D000471248134993
:1000A000086003C880F30888084703B5996A0420EC
:1000B0000142FBD001200142F8D103BD02B5186610
:1000C0001866FFF7F2FF186E186E02BD00000240BE
:1000D000000000180000070000035F00212200005C
:1000E000F4000018222000A00001001008ED00E03C
:1000F00000000000000000000000000074B24E7A12
:1001000000200420F7010010CB010010CD010010E9
:10011000C9010010C9010010C9010010C901001077
:10012000C9010010C9010010C9010010CF01001061
:10013000C9010010C9010010D1010010D301001045
:10014000C1010010C1010010C1010010C101001067
:10015000C1010010C1010010C1010010C101001057
:10016000C1010010C1010010C1010010C101001047
:10017000C1010010C1010010C1010010C101001037
:10018000C1010010C1010010C1010010C101001027
:10019000C1010010C1010010C1010010C101001017
:1001A000C1010010C1010010C1010010C101001007
:1001B000C1010010C1010010C1010010C1010010F7
:1001C000EFF30580103800BE00BE00BE00BE00BECA
:1001D00000BE00BEF2EB8871EC4E00100C4F001018
:1001E0003802001090A31AE71E481F49086006C88D
:1001F00081F3088810471D480068002801D019487D
:10020000F3E70DA40ECC002902D000F012F8F9E7B4
:100210001749184A002000E001C19142FCD116495B
:100220008847164988471649884700BEFDE701C937
:1002300001C29A42FBD370470C4F0010C00000204F
:10024000440300209051001000000420000004200E
:100250009051001000100420001004200000000045
:10026000704700000000000008ED00E0000000D032
:1002700044030020E8080020814200107D030010A4
:1002800079420010F8B5C0460448054B10B58342CA
:1002900003D0044B002B00D0984710BD440300202E
:1002A000440300200000000006480749091A8B108B
:1002B000C90FC91810B5491003D0044B002B00D04A
:1002C000984710BD440300204403002000000000B4
:1002D00010B5074C2378002B09D1FFF7D5FF054B4C
:1002E000002B02D0044800E000BF0123237010BDA2
:1002F000D0060020000000004C4B0010054B10B54C
:10030000002B03D00449054800E000BFFFF7CCFFF5
:1003100010BDC04600000000D40600204C4B001069
:1003200070B5D02480252406AD02112000F026FDF2
:10033000656204F0B7F80F490F4804F051FA032141
:10034000002000F0F1FC0321012000F0EDFC002270
:100350000121002000F000FD00220121012000F019
:10036000FBFCFA20C00001F01DF90A2000F018FB88
:10037000656170BDA086010030030020F0B5D6464F
:100380004F464646C0B58CB0FFF7CAFF06AA11001B
:10039000234B31CB31C131CB31C1224B6846009365
:1003A00002230293002301920393049300F08CFC38
:1003B00001F008FA06000F0001F004FA0023984645
:1003C000012399468023D0259B029A462D0608E0FA
:1003D0006B6101F0F7F9A04606000F00052001F05F
:1003E000E1F800F04BFB03685A1C03D04168180089
:1003F00000F07AFC01F0E6F944464B46801BB94117
:100400005C40E4B2002904DD5346002CE0D1AB612E
:10041000DFE70029E2D1044B9842F5D8DEE7C04679
:100420008C4C0010504B001040420F000F22002354
:1004300000B585B06A44C0001070272100930348BE
:10044000013304F0F5F905B000BDC04630030020CB
:10045000F0B585B06A46FF23002593730E228D4CBC
:100460006A44FE3B27212000009504F0E1F90120B9
:10047000002101F021F86A46FB23D3730F22FA3BD7
:100480006A4427212000009504F0D2F9002132208F
:1004900001F012F8142001F085F83C276B460E227B
:1004A0009F736A44012327212000009504F0C0F9BE
:1004B0000120002101F000F838266B460F22DE7380
:1004C0006A44012327212000009504F0B1F900219E
:1004D000322000F0F1FF0A2001F064F86B460E2292
:1004E0009F736A44012327212000009504F0A0F99E
:1004F0000120002100F0E0FF6B460F22DE736A440A
:10050000012327212000009504F092F900213220D8
:1005100000F0D2FF012001F045F86B460E229F73D8
:100520006A44012327212000009504F081F901206D
:10053000002100F0C1FF6B460F22DE736A440123E5
:1005400027212000009504F073F93220002100F0EB
:10055000B3FF0120002100F0AFFF6B460E22103FD9
:100560009F736A44012327212000009504F060F95D
:100570000120002100F0A0FF6B460F22103E6A44CC
:10058000DE73272101232000009504F051F9322069
:10059000002100F091FF0120002100F08DFF6B464B
:1005A0000E229F736A44012327212000009504F046
:1005B0003FF90120002100F07FFF6B460F22DE7320
:1005C0006A44012327212000009504F031F93220EC
:1005D000002100F071FF6A468C2393730E228B3B3F
:1005E0006A4427212000009504F022F9012000210F
:1005F00000F062FF6A468823D3730F22873B6A4468
:1006000027212000009504F013F93220002100F08A
:1006100053FF6A460C2393730E220B3B6A44272137
:100620002000009504F004F90120002100F044FFAF
:100630006A460823D3730F22073B6A442721200010
:10064000009504F0F5F83220002100F035FF6A46ED
:10065000FC2393730E22FB3B6A4427212000009564
:1006600004F0E6F80120002100F026FF6A46F82396
:10067000D3730F22F73B6A4427212000009504F032
:10068000D7F80021322000F017FF022000F08AFF87
:1006900005B0F0BD30030020F0B52B4B87B01960DA
:1006A0002A4B002718602A4B0F265C5C0F23041985
:1006B000E4B222009A4323010E24029302ABE41811
:1006C0007423244D5B4213432370039201232200C1
:1006D00027212800009704F0ABF80120002100F04A
:1006E000EBFE02ABF6187823039A5B421343337098
:1006F0003200012327212800009704F099F83220C6
:10070000002100F0D9FE0C23029A27211343237005
:10071000220001232800009704F08AF8012000211C
:1007200000F0CAFE0823029C32001C4334700123EF
:1007300027212800009704F07BF83220002100F0E8
:10074000BBFE07B0F0BDC046BC080020B8080020C2
:10075000A44C001030030020F0B5DE4657464E464C
:100760004546E0B50478834685B0002C4ED00E2374
:100770006B449946294B0F2700261D006F44230028
:100780000F22934398460D23424613434A4627219E
:10079000137028000123009604F04AF8012000217C
:1007A00000F08AFE09239A464346524613433B70A3
:1007B0003A00012327212800009604F039F832205E
:1007C000002100F079FE0D234A46240123431370D3
:1007D000272101232800009604F02AF80120002197
:1007E00000F06AFE53461C433C7001233A00272167
:1007F0002800009604F01CF83220002100F05CFE76
:1008000001239B445B461C78002CB8D105B0F0BC9A
:10081000BB46B246A946A046F0BDC0463003002004
:10082000F0B583B06B469C1DFF2323706B46DE1D25
:100830000F000500012332002100244804F054F980
:10084000234B21001A6801239340D02212069361A2
:1008500040231D4325700025012332001B4804F06E
:1008600043F90123320021002570184804F03CF9B7
:100870000123320021002570144804F035F90123CA
:10088000320021002570114804F02EF901233200B6
:10089000210025700D4804F027F92770012332004C
:1008A00021000A4804F020F9FF270A4D02E0013D2B
:1008B000002D09D00123320021000448277004F0E4
:1008C00013F93078FF28F2D003B0F0BD00C0034028
:1008D000B0080020FFFF0000F0B5C64600B582B0AA
:1008E0006B469C1DFF2323706B46DE1D0D00070029
:1008F0009046012332002100264804F0F5F8264BEB
:1009000021001A6801239340D022120693614023EC
:100910001F433200012327701E4804F0E5F82B0E18
:100920003200210023701B48012304F0DDF82B0C5A
:100930003200210023701748012304F0D5F82B0A58
:100940003200210023701348012304F0CDF8012365
:100950003200210025700F4804F0C6F843463200EB
:100960002370210001230B4804F0BEF8FF270B4D34
:1009700002E0013D002D09D001233200210005488D
:10098000277004F0B1F83078FF28F2D002B080BCB4
:10099000B846F0BD00C00340B0080020FFFF0000D3
:1009A000F0B5334D83B033492860334803F04AFF34
:1009B0000121142000F0B8F90121172000F0B4F94A
:1009C0000121162000F0B0F9286800F0D7F90123C2
:1009D0002A6864209340D02212065362536100F0CB
:1009E000E1FD0A24FF266B466A4669469E7122484D
:1009F000012307320631013C04F076F8002CF2D1D5
:100A0000D0260127360695210020FFF709FF3A007E
:100A10002B6804009A4072610128F4D1D521872205
:100A200008204900FFF758FF2B689C40FB237461A6
:100A300003400020012B01D003B0F0BDD0260127D8
:100A4000360665213720FFF7EBFE8021772229202B
:100A5000C905FFF741FF3A002B6804009A40322095
:100A6000726100F09FFD002CEBD10120E4E7C0464D
:100A7000B0080020400D030000C00340F0B5D024B2
:100A80000423C6460822240600B563616261083269
:100A90006261A361234B002598460126224F6168BD
:100AA0006268636852061B068906DB0FD20FC90F06
:100AB000404603F0C5FD20234021802062681A4093
:100AC0009306DB0F73403B70636819404B06DB0FE6
:100AD00073407B70636818400306DB0F7340BB7084
:100AE000002A16D0002919D0002819D00135032D6D
:100AF00002D180BCB846F0BD0423102263610433E8
:100B000063616261012D02D00225A261C7E7A36182
:100B1000C5E70023054803604560EAE70123F9E7DC
:100B20000223F7E7704B0010DC080020C804002007
:100B30000C4B30B51D68AC68002C11D029696A686F
:100B40004B005B189B00D31898790023063211786C
:100B5000814201D908002B6101330C329C42F6D14D
:100B600030BDC046B40800200C4B30B51D68AC68E1
:100B7000002C11D029696A684B005B189B00D318C0
:100B80009879002306321178814201D208002B6146
:100B900001330C329C42F6D130BDC046B40800206F
:100BA0007047C046F8B50024174D210000200134DD
:100BB000FFF772FDE4B22800FFF7CEFD042CF4D15C
:100BC000124E0025336800249A68002A1AD0104F6C
:100BD00009E05B6801345859FFF7BEFD33689A6835
:100BE00094420FD20C355B685B1999795879FFF7FD
:100BF00053FD33681A69A242EBD13800FFF7ACFD10
:100C00003368E6E7F8BDC046884B0010B408002002
:100C1000A04B00107047C0467047C046F0B5CE46A6
:100C2000474680B5430098461B18234D5B181B01AF
:100C3000EB1883B09E68DF680400894600F0C2FDAF
:100C4000801BB941002922DD434600221B194B4479
:100C50001B01EB185A60002344444C4424012A59D8
:100C600001A8D35C2D19037000234370FFF774FDB6
:100C700068680321013001F07FF8696000F0A2FD8F
:100C8000A860E96003B0C0BCB946B046F0BD002919
:100C900002D10A4B9842D7D8094B1978094B1868EA
:100CA0000138C0B2FFF7F8FC43461B194B441B0147
:100CB000EB185B68D0E7C046400200201FA1070088
:100CC000BC080020B808002010B5064C2060FFF7D3
:100CD000BFFB0120FFF7AAFB2368002B01D0FFF721
:100CE00061FF10BDB408002010B50C4B1B78002B21
:100CF00005D0012B00D010BDFFF790FFFBE74300AC
:100D00001B18074A5B189B009B589847054B1B68AC
:100D1000002BF0D0FFF746FFEDE7C046F4020020BD
:100D2000D0020020B408002010B54024074A8300F8
:100D30009A181268C0005440C0222240044C1B196B
:100D40001A60044BC018416010BDC04604C0014089
:100D500004D0014000400140064B8000C3181B68CE
:100D6000C90092000A435A400C231340024A8018DB
:100D70000360704704C0014004D001400123D02229
:100D80008340120693629361084A83009A1811689F
:100D90004022514080320A400549C0005B181A6069
:100DA000044BC018052343607047C04604C001408F
:100DB00004D00140004001400FB400B5084883B0A2
:100DC00003F0BCFB049B002B07D005A91800019180
:100DD00003F038FA034803F0B1FB012003F04AFAAC
:100DE000EC4B0010FC4B001070B58C461600EFF376
:100DF000108472B60F490B68002BFCD0BFF35F8FD5
:100E00006346DB08C5180722C05C63461A4001230D
:100E100093401A000240034207D118432870BFF3E1
:100E20005F8F0A6084F3108870BD61463000FFF761
:100E3000C3FFC0462C0100D0044A1078431CDBB22B
:100E4000172B00D9102313707047C046F5020020FD
:100E50000021044B044ABFF35F8F02C39342FAD1CF
:100E60007047C046000100D0800100D0084B094AFD
:100E70001360094A1360094A1360094A1360094A5A
:100E80001360094A1360094A1360094A13607047E6
:100E90008080808000E400E004E400E008E400E0FA
:100EA0000CE400E010E400E014E400E018E400E0EA
:100EB0001CE400E01F2318401E3B8340002905D09E
:100EC000C021044A490053501360704780220149F1
:100ED0008B50FAE700E100E070B50D00EFF31086EB
:100EE00072B60F4A1368002BFCD0BFF35F8F0D4B17
:100EF00010309B6884001B590B4A934203D09D42DB
:100F000001D000F00DFE074B9B681D51BFF35F8FB2
:100F1000BFF35F8F0022024B1A6086F3108870BD0A
:100F2000240100D000ED00E0C1010010024BC918FF
:100F3000890001607047C0464000003470B5114C14
:100F4000114DAC420FD2FF262368002B0CD0FFF7C7
:100F500073FF01002000FFF7E9FFA680BFF35F8F5A
:100F60000834AC42F0D370BDFFF766FF01002000EB
:100F7000FFF7DCFF2671BFF35F8F0834AC42E3D389
:100F8000F1E7C0463C030020440300200A4B1968E7
:100F9000EFF3108072B60A68002AFCD0BFF35F8FAF
:100FA0001B68BFF35F8F00221A6080F3108840BF78
:100FB000002000217047C046E4080020F0B5DE465E
:100FC00057464E464546E0B585B0EFF3058303220C
:100FD0001A40B34B91005F58012393409B46029205
:100FE0005A468846AF4B1A60AF4B03935B46AF48F7
:100FF00043630823FE5E002E37DABB881BB2002B4A
:1010000000DBA4E0BB79002B00D0E5E00823F95E0B
:10101000002920DB4B007A695B18DB00D3189D6840
:10102000DC686B1C00D104E1A04801004144826AE5
:101030000B69AE1A9B1A9E4215D30123026A0298CD
:1010400083401A420FD0994800F0B4FB8C4202DC76
:10105000CCD18542CAD940BF05B0F0BCBB46B24630
:10106000A946A046F0BD0D61EDE77A69730091468F
:101070009B19DB0099444B469C68DD6800F09AFBA5
:101080008D42BADC00D1F6E0002D00DADBE04A4602
:101090004B4652691B699246039A934200D1CCE0B9
:1010A0004A460821785E528800045146104398470A
:1010B000009001910099019A0B00134300D1C2E006
:1010C00013000A00002B00DBD9E020002900801A61
:1010D00099414B469860D96000229B5E002B00DA54
:1010E0008BE75D007C69EA18D200A218009494682E
:1010F000D268A2468A4200DD7FE702D1844200D94D
:101100007BE70824A4463B81BC44009C00972F0049
:101110006546B4463E0006E05E00F218D200A21812
:101120009768D268BA468A4207DC00D1B4E0F31867
:10113000DB00E518E35E002BEEDA66464A46009FC8
:1011400013802E80BB881BB2002B00DA5AE73A6965
:10115000EFF3108172B61368002BFCD0BFF35F8FE2
:101160000123BE885B42BB8036B23B69BFF35F8F11
:1011700000221A6081F31088002E00DA42E73B005B
:1011800008333A0099467D6973009B190824115F62
:10119000DB004846EB18002913DB9C680093A4464B
:1011A000DC6806E0A34240D00023F95E3800002945
:1011B00006DB4F007F18FF00EF19FB68A342F1DD4B
:1011C000009B068000201E5E1980002EDCDA1700CE
:1011D000BB79002B00D119E70023BB710823F95E0E
:1011E0004B1C00D137E73D000835AC467C6903E075
:1011F00084464B1C00D109E74B005B18DB00E0186C
:101200000A00E15E43881BB2002BF1DA01256D4232
:10121000EE178560C66008257B5F9342E9D0634680
:1012200019803B8903803A81E3E7BB686345BBD9FA
:10123000C6E7631C00D0F7E605E7534650461B6936
:101240009847002823D14B461B883A693B81EFF32E
:10125000108372B611680029FCD0BFF35F8F494636
:101260007A880A803A697E80BFF35F8F002111601F
:1012700083F31088C1E6844200D805E7BDE60B4839
:1012800000F098FA009B019CC018614121E7534689
:101290000CCB009201930DE7824500D847E74CE75D
:1012A000CC0800203C700540BD0F001000400540F8
:1012B00070B52D4C2569002D04D00A212B48FFF76D
:1012C00035FE70BD2A4E0321294800F069FAE66018
:1012D000FFF7B2FD274B0322C018D02322701B0654
:1012E0001B6801216370244B8000A3600F232061E1
:1012F0000220638063694942A18019800231198606
:1013000047311D83585218315A5275325C399952FF
:101310001832013199521832013199521832013183
:101320009952083518329D520231183299521832AA
:1013300001319952183201319952183201319952C2
:101340001832013199521832013199520B4B0C4924
:10135000DC6001303562FFF7BFFD01210320FFF79C
:10136000A9FD084B1D60A8E7F8020020E408002052
:101370000040054040000034FFFF1000CC08002072
:10138000BD0F00103860054070B582B00092019327
:1013900001000269EFF3108472B61368002BFCD0D1
:1013A000BFF35F8F0223C85E0D6900283FDB4A69E7
:1013B000430016001B18DB00D218F35A4B80BFF312
:1013C0005F8F00232B6084F31088069B1361079BBB
:1013D0005361009B019C9360D460538801335B048C
:1013E0005B0C1D1C002B20D0ACB2030455802343A2
:1013F0000D69EFF3108C72B62C68002CFCD0BFF393
:101400005F8F8C88148088800A69BFF35F8F00200B
:1014100010608CF310880A7801309040CA6808493F
:1014200052181060180002B070BD0125DCE7BFF350
:101430005F8F00232B6084F31088013BF2E7C046E6
:101440003C20000010B543890A1493421ADD530072
:101450009B184269DB00D3180469EFF3108C72B655
:101460002268002AFCD0BFF35F8F5A88090494B227
:10147000090C8A4208D00369BFF35F8F00221A600B
:101480008CF31088002010BD094A22435A800123A2
:1014900002698371BFF35F8F002111608CF31088A4
:1014A000027804499340C268012052181360EAE7A9
:1014B0000080FFFF3C200000F0B5C64600B582B0BA
:1014C00004000D0000F07EF924184D41002D02DAD1
:1014D00001242F4D644206267642F71736196F41D4
:1014E000AF4214D811D000F06DF932003B00121A4F
:1014F0008B41002B15DC002B46D02000290000F08A
:101500006BF902B080BCB846F0BDA642EBD900260C
:10151000002700F057F932003B00121A8B41002BD4
:10152000E9DD00F04FF932003B00121A8B41002B2D
:101530000ADB00230193174B3200009316483B004F
:10154000FFF722FF0130D8D000233900B0469C4677
:10155000124A1348536A994204D8966A4645CCD237
:101560009942CAD10668EFF3108772B63368002B30
:10157000FCD0BFF35F8F0368BFF35F8F66461E60CA
:1015800087F3108820BFE5E7002AB6D0C9E7C04638
:10159000FFFFFF7F8D0F0010F80200200040054084
:1015A000E4080020F0B5C64600B582B0040000F0A3
:1015B00009F9FA2206000F00200000230021920002
:1015C00001F026FA8019794104000D1E02DA012487
:1015D0002E4D644206267642F71736196F41AF4208
:1015E00014D811D000F0EEF832003B00121A8B41F3
:1015F000002B15DC002B46D02000290000F0ECF871
:1016000002B080BCB846F0BDA642EBD90026002748
:1016100000F0D8F832003B00121A8B41002BE9DDB4
:1016200000F0D0F832003B00121A8B41002B0ADB8D
:1016300000230193164B3200009316483B00FFF73E
:10164000A3FE0130D8D000233900B0469C46124A90
:101650001248536A994204D8966A4645CCD29942B8
:10166000CAD10668EFF3108772B63368002BFCD03E
:10167000BFF35F8F0368BFF35F8F66461E6087F31B
:10168000108820BFE5E7002AB6D0C9E7FFFFFF7F3B
:101690008D0F0010F802002000400540E4080020F3
:1016A000F0B5CE46474680B504000D0085B0EFF397
:1016B00005868946002E10D0364900204B6AAB4281
:1016C00006D38A6A5B1B591E8B41A24240411843D4
:1016D00005B0C0BCB946B046F0BD2F4FFB683A78A4
:1016E00098461800039200F065F8039A131D4246CD
:1016F0009B009B5822001B1A9C462B00121A8B4100
:101700009E4210DC0DD020BF224A0020536A4B4578
:10171000DED3926A5B1B591E8B41A24240411843A3
:10172000D6E79445EFD900F04DF822002B00121AAD
:101730008B41002B1BDB00230193184B22000093ED
:1017400038002B00FFF720FE002810DD114B5A6AED
:101750004A451CD39B6AA34217D301003800FFF708
:1017600071FE0C4A0020536A4B45B1D3D1E7094AB8
:101770000020536A4B45ABD30020926A5B1BA24208
:1017800040415A1E93411843A2E74A45E5D120BF84
:10179000E3E7C04600400540F80200208D0F00102E
:1017A00010B5024A0248FFF71FFB10BD004C0010A5
:1017B000840800200300416A0A00986A596A8A4234
:1017C000FAD17047034B596A0A00986A596A9142E4
:1017D000FAD1704700400540064A536A9942FCD846
:1017E00007D1044B02E05A6A914202D19A6A9042B0
:1017F000F9D8704700400540F8B5DE464E464546EC
:101800005746E0B505008B4618000A99914600F04E
:10181000DBFA0A9B6C001E026419304BA400E4182A
:10182000636880469E4200D966602F1FFBB29A46CD
:10183000012B2FD9C0238022294FAD009B0179595C
:101840001201E3181A6000291BD14B4622685B0184
:101850005340E022134080225201A21813605346E5
:10186000012B2FD9802380229B01E31812011A60DB
:10187000434666607B51F0BCBB46B246A946A046D3
:10188000F8BD786900F0A0FA013043001B18033B53
:10189000FDD2DAE75B46012BCCD1C02303229B01AA
:1018A000E3181A60023AA3681A42FCD04A46236839
:1018B00052015A40E023134080225201A218084FDF
:1018C0001360AD0058460323216841400B4013606C
:1018D00001228240A3681A42FCD0C3E70080004086
:1018E00088080020F0B5D6464F4646464400984644
:1018F0002418324BA400E41863688A469146C0B5A8
:10190000FF2B02D880235B006360061FF6B2012E16
:101910002FD9C02380222A4F85009B0179591201BB
:10192000E3181A6000291BD14B4622685B01534023
:10193000E022134080225201A2181360012E30D9F8
:10194000802380229B01E31812011A6080235B0030
:10195000636043467B51E0BCBA46B146A846F0BD41
:10196000786900F031FA013043001B18033BFDD2C7
:10197000DAE75346012BCCD1C02303229B01E318A5
:101980001A60023AA3681A42FCD04A462368520100
:101990005A40E023134080225201A218084F1360DE
:1019A000850050460323216841400B40136001220B
:1019B0008240A3681A42FCD0C2E7C04600800040C3
:1019C00088080020014B8000C0587047880800201C
:1019D000F0B5C646040000B52348160098460D0031
:1019E00000F0F2F90100300000F0EEF94346069AEB
:1019F0001B04120313439C4623680600002B22DBC2
:101A00001A4B1B48E218531E9A4180235242120B74
:101A10009B011203D218174B1A60174B1A60130060
:101A200001688B43FBD12122144B2560E318A6608B
:101A30001A602268002AFCDA6246E26008221A6014
:101A400080BCB846F0BD3F2322681340AB42D7D1DB
:101A5000A3681B051B0D8342D2D1EE22E368D2029C
:101A600013406345CCD1EBE7001BB7000040FDBF3E
:101A700008C0004000E0004000F0004004300000DA
:101A80008023024A9B000B43D362704700800540CD
:101A9000002310B50100988A1B8B984710BDC046E3
:101AA000162310B5010018885B88984710BDC04602
:101AB000F8B54746CE4680B50F1E18D01423994678
:101AC000043304000025012698464B4618884346F7
:101AD00021681B88984701C4431E98410135064080
:101AE000AF42F2D13000C0BCB946B046F8BD0126C5
:101AF000F8E7C046AA23064A1B0113608D235B004A
:101B0000D3600449044B19605368002BFCDA70471A
:101B10000040024000B0FA00006002407047C0463A
:101B200010B50148FFF748F9244C001070B5074D77
:101B3000074EB54209D20024013E761BB608013695
:101B400008CD01349847B442FAD170BD084B00105B
:101B5000444B0010054B064A06491A60064A074BDB
:101B60001A6010000B689843FBD1704700E00040FA
:101B7000BFCDFBFE08C00040FE7F3C0000F00040EF
:101B8000044BDB6C002B03D18022034BD2021A6082
:101B90007047C046000011504C201150044A054BBC
:101BA0001A60054A1368DB018033FBD17047C046D9
:101BB000FFFFFF0100F0004008C000404022034B3F
:101BC0009A675A671A67DA667047C04600F00140A4
:101BD00010B5FFF73DF910BD70B52849284D294EC5
:101BE0006D1AAC102200302C00D930223000920047
:101BF00000F07AFFBC2D3DD823002A3B224A052B5A
:101C00001DD9302075196D07A446001BEB0F002D60
:101C100003DA611C8C46A1007250C01AE3189B00C5
:101C20004108F318C900C9181A605A60083399426C
:101C3000FAD1012303421DD0984360440400A3005D
:101C4000F250631C2F2C15D09B00F250A31C2E2C9D
:101C500010D09B00F250E31C2D2C0BD09B00F250B7
:101C6000231D2C2C06D09B00F250631D2B2C01D081
:101C70009B00F250054B9E6070BDC04600010010F5
:101C8000C001001000000020C101001000ED00E0C4
:101C9000002310B5294C82B0A367FFF72BFF012268
:101CA000274B1A60636C012BFCD10322254B1A6071
:101CB000224A936B012BFCD1013300930121224A6C
:101CC00022480433FFF784FE052301210093204AB4
:101CD0002048FFF77DFE0022022104201E4BFFF763
:101CE00001FE0022012105201C4BFFF7FBFD002215
:101CF000002107201A4BFFF7F5FD002200210820E4
:101D0000174BFFF7EFFD8023DB000093002200213B
:101D10000920134BFFF770FD0022104B0021062015
:101D2000FFF7E0FD0420FFF74DFE0E4900F04CF8F0
:101D300001000020FFF7A4FE02B010BD00800040AB
:101D40003CB0004030B00040002F68590080024095
:101D5000008C864700C00240001BB7004059730743
:101D6000006CDC0240420F0001480421014B18477F
:101D700010030020B11A0010124A936F9B0815D26D
:101D80009066D166002905D0FFE7FFE7FFE7516FB6
:101D9000106F704704B580210906C2175140002812
:101DA00000D0C84302F098FE002104BDF0B5146EC7
:101DB000556E576F166FFFF7E3FF1466556657674A
:101DC0001667F0BD000000D0114A936F9B0813D234
:101DD00010665166002905D0FFE7FFE7FFE7516F66
:101DE000106F704704B5002801D00020C04302F0F6
:101DF00073FE002104BDC046F0B5146E556E576FDA
:101E0000166FFFF7E5FF1466556657671667F0BD56
:101E1000000000D094464A4A926F9208624601D26E
:101E200028E0C046F0B5464E346E756E776F366F5B
:101E300000F020F89446424A1466556657671667C4
:101E40006246F0BD94463E4A926F9208624601D2C5
:101E500054E0C046F0B53A4E346E756E776F366F0B
:101E600000F04CF89446364A146655665767166774
:101E70006246F0BD002B24DB11D000293EDA00B50C
:101E8000C943404200D1013100F038F8C943404213
:101E900000D10131DB43524200D1013300BD002AA1
:101EA000EBD1002801D1002905D00020C90FC907B6
:101EB00001D1C043410800B502F006FE0022002314
:101EC00000BD00B500290ADBDB43524200D10133DB
:101ED00000F014F8C943404200D1013100BDC943AC
:101EE000404200D10131DB43524200D1013300F0C6
:101EF00005F8DB43524200D1013300BD002923D154
:101F0000002B18D1002A0CD0BC460D4F38667A66DB
:101F100000210023FFE7FFE7FFE77A6F386F67468E
:101F20007047002801D00748010000B502F0CCFD41
:101F30000022002300BD02000B000020002170479A
:101F4000000000D0FFFFFFFF002B00D0BFE0130C0C
:101F500028D1002AE7D080B4114F39667A66FFE7AE
:101F6000FFE730B4040C7B6F396F1B0423433B66DF
:101F70007A66FFE7FFE7FFE7C04684B27B6F3D6FFD
:101F80001B0423433B667A66FFE7FFE7C046002356
:101F90002C042D0C7A6F386F00196941B0BC704762
:101FA000000000D0F0B594460025140E01D11202B5
:101FB0000835140F01D112010435940F01D192009C
:101FC0000235D40F01D152000135D40B0134254F15
:101FD0007C66254C3C660E0C93B2FFE7FFE7FFE7FB
:101FE0003C6F6643360C7703BE467343DF0B5B04DE
:101FF000C01AB941130C7343DB18C91ACE086643E3
:10200000360CB64493B273431F0F1B01C01AB9417B
:10201000130C73431F0B1B05C01AB941860D8F02A9
:102020003E436643360C092D24DB520A7243801A64
:102030007703460A6643360C16235B1BDE40DF40FF
:10204000BF1964466643821B70460435063301009F
:10205000D940A840C01900D30131A24206D20023C2
:10206000F0BD0000000000D0FFFFFFFF121B013099
:10207000F3D3F1E709277F1BFE406446A2B2724307
:10208000801A00D20139220C7243130C1204821AF6
:1020900099410B007046043513370100F940A84000
:1020A000801900D30131002B02D1A2420AD2F0BD27
:1020B000013000D30131121BFAD2013BF8D1A24208
:1020C00000D2F0BD013000D30131121BF7E7F0B5AB
:1020D0001C0C00D080E00CB400251C0A04D11B02AB
:1020E000160E3343120208351C0B04D11B01160FC8
:1020F0003343120104359C0B04D19B00960F3343EC
:1021000092000235DC0B02D192185B4101351C00B4
:10211000971864410134464F7C66464C3C660E0C71
:10212000FFE7FFE7FFE7C0463C6F6643360C7703E7
:10213000BE4697B27743C01B00D20139C01B00D204
:1021400001399FB27743C91BC91B170C77437E0423
:10215000FF0B801BB941CE086643360C0C2D33DBD8
:10216000B644120B1F053A431B0B97B27743C01BB3
:1021700000D201399FB27743C91B170C77433E0445
:102180003F0C801BB941860D8F023E4366432927D1
:102190007F1BFE400C3D7746AF40BF1930BCA2B25A
:1021A000ABB272437343801A9941220C7243130CF1
:1021B0001204801A994102000B000137001BA9414B
:1021C000F9D2781E0021F0BD0C277F1BFE40774618
:1021D0007F0BAF40FF19E0E700245D1C07D0144FD0
:1021E0007D663966FFE7FFE7FFE7FFE73C6F95B2E3
:1021F0009EB265436643401BB141150C1E0C6543FE
:10220000664336042F0C3E432D04401BB1419942D6
:1022100004D202000B0020000021F0BD01D1904249
:10222000F7D3801A994101349942F2D3F6E70000BE
:10223000000000D0FFFFFFFF48404140484018B475
:102240001B4B5B68FC46019308BD04DFE3240010D0
:1022500018B4174B1B68FC46019308BD00DFED2442
:1022600000109446134A926F920809D2624618B43D
:102270000F4BDB68FC46019308BD0CDFA52700105F
:102280000C4AF0B5146E556E576F166F6246FFF725
:10229000EEFF084A1466556657671667F0BD18B416
:1022A000034B9B68FC46019308BD08DF49260010DC
:1022B000D0040020000000D0FFB550404240504004
:1022C00059404B40594000E0FFB5154F4C00640D9C
:1022D00003D0BC4204D10C0314D80020090D090519
:1022E0005C00640D03D0BC4204D11C030AD8002258
:1022F0001B0D1B0501264B4009D44B4003D58B42D7
:1023000000D18242FFBD9942FCD19042FFBD0B43F8
:10231000DB1803431343F5D0C9434918FFBD000040
:10232000FF07000000B5FFF7CFFF804100BDC046AA
:1023300000B5FFF7C9FF01D9002000BD012000BD95
:1023400000B5FFF7B9FF01D9002000BD012000BD95
:1023500000B5FFF7B1FF804100BD012040054A00F4
:10236000121804D85A00121801D800207047012012
:10237000704700000021002805D17047C117484070
:10238000401AFAD0C90713B5064B1B6898470CBC16
:10239000441CA2401005120B0349091B09051943EF
:1023A000114310BDE00800201F04000010B54C00D0
:1023B000620D8023D218DB00D21A5B057E2A10DD65
:1023C0009E3A13DACC170903490819435242D14007
:1023D000640001341532202A05DAD04008436043F6
:1023E00010BD002010BD0846604310BDC80FC018C6
:1023F000013810BD18B4044B5B6AFC46019308BD5C
:1024000024DF552900100000D0040020132370B5EC
:102410001D78012D19D014DD1F48FFF741FB060080
:102420001E48FFF73DFB1E4C80223100200000F0CB
:102430005BFB022D2DD01B48FFF72AFB1A4B1860BF
:1024400070BD1A4B164CA364F5E7184B144C23606F
:102450006360A360E36023616361A361E36123625E
:102460006362A362E36223636363A363E36323643E
:102470006364A364E36423656365A365E36523661E
:102480006366A366E36623676367A367E367A36482
:10249000D1E7064BA364CEE7534400005346000047
:1024A000D00400204C330000E0080020B1240010CC
:1024B00007B5604601880A0A0230DF2AFAD1C9B29C
:1024C000820804D3028840880004104300E00068BA
:1024D000014A5050039007BDD00400200FB403BC44
:1024E0000CBCF0B50124E407634000E0F0B50C0D2E
:1024F000CF0F661E3605891B640503D3C9434042CE
:1025000000D30131640D03D0661CF60A07D0E41B2A
:1025100000207F00791C89078912803C24031D0D4F
:10252000DF0F6E1E36059B1B6D0503D3DB43524246
:1025300000D301336D0D03D06E1CF60A07D0ED1BDE
:1025400000227F007B1C9B079B12803D2D032F1BCD
:10255000661B58D4A446202E46DA20371400BC400F
:102560001D00BD40F24033412A4380185941CB0F32
:1025700005D0C943C04300226442504151416246E4
:102580004D0D28D10D0D07D100281FD02419404131
:102590004941013A0D0DF9D0640006D3013000D352
:1025A0000131002C01D140084000013A0BD4941CA9
:1025B000E40A04D112051144DB071944F0BDD90720
:1025C000204B194300E0D9070020F0BD0029DDD1E0
:1025D000002CDBD1F0BD0132C6074008CD072843EF
:1025E0004908002EE1D0D9E73C2E29DA203E4037B9
:1025F0001400BC4000D00124F24014431A00BB4038
:102600001C43D317ACE7AC46202F08DA2036040071
:10261000B4400D00B540F84039412843A5E73C2FB0
:102620000CDA203F40360400B44000D00124F840CA
:1026300004430800B1400C43C117EAE71000190039
:10264000002494E70000F07FF0B50C0D661E3605FF
:10265000891BE60A6405640D02D0651CED0A04D0EE
:10266000002001210905803C2403A4461C0D671E9F
:102670003F05DB1BE70A6405640D02D0651CED0A0B
:1026800004D0002201231B05803C240377406444CE
:1026900097B484B296B27443070C7E43150C6F4313
:1026A00080B26843361802D3012000043F1830047A
:1026B000350C00197D41844688B29AB250430C0C07
:1026C00062431F0C7C438EB27E43921902D30126D3
:1026D0003604A4191604170C3618674101BC81B2E0
:1026E0009AB25143040C62431B0C5C4380B25843C2
:1026F000121802D30120000424181004130C4018EF
:1027000063412D185E410020474106BC88B293B258
:1027100058430C0C6343120C544389B251435B1869
:1027200002D301210904641819041A0C0918624122
:102730006D1856410020474118BCF902720D114333
:10274000F0026A0D1043ED020A0D03D16D194041EC
:102750004941013B124E9B1B7600B3420ED26D00E5
:1027600007D30130002671416646354301D1400848
:1027700040001B05C918E4072144F0BD0BDA013302
:1027800006D1013004D101314F0D01D04908F2E7E3
:10279000E1070020F0BD013631050020EBE7000025
:1027A000FF030000F0B51C0D671E3F05DB1BE70AA9
:1027B0006405640D02D0661CF60A04D000220123D1
:1027C0001B05803C2403D0252D060026F6432E66EB
:1027D0001E096E66CE0FF619B44649004F0D02D0A1
:1027E0007E1CF60A03D000200021403F3F033E1B21
:1027F000B600B444013F7F05C91B49082E6F01365E
:1028000076089C02950D25437543ED137543AD1372
:1028100001356D10F603761B0CB4CC02450D2C432C
:10282000A2B2B3B25A43270C7B43350C6F43A4B218
:102830006C431B1902D3012424043F191C041D0CF2
:10284000A4187D4124196D41009A91B2ACB2614344
:10285000170C7C432B0C5F4392B25A43A41802D34B
:1028600001221204BF182204230C52187B41019C40
:102870006C431B19520ED9010A434401A01A81B2BC
:10288000B2B2514303145A43360C734387B27743B1
:10289000D617D21900277E4136049B191704160C4F
:1028A0007F185E417316ED18F301002680337541E1
:1028B000A90F06D16400690AE8055B0A184309D22A
:1028C0002FE00422944480337541A90AA8059B0A8D
:1028D000184326D3404149412404009A019B0D002E
:1028E0005543641B4343E41A95B286B27543170CF3
:1028F0007E43030C5F4392B25A43B61802D30122BF
:102900001204BF183204330C52197B4152429C41CD
:10291000002C02D40022013051414008CA07104364
:10292000490802B06246D7079210084BD218084BEC
:102930009A4203D212058918C919F0BD0020002A55
:1029400001DC3900F0BD01331905F5E7FD03000096
:10295000FE070000002200B5203200F004F8080055
:1029600000BD000000220B150AD410B5944600F0FB
:1029700031F81414013400DA0021CB17144C20472D
:102980000020002170476244343A0CD40C2A07DA44
:1029900004009140904052422032D440214310BD67
:1029A000D843D94310BD203207D40C46944052423C
:1029B00020321141D040204310BD0800C9172032F9
:1029C00003D452422032104110BD1800190010BD2E
:1029D000872900100A0DCC0F531E1B05C91A52057A
:1029E00003D3C943404200D30131520D03D0531CDD
:1029F000DB0A07D0121B00206400611C89078912C2
:102A0000803A1203014BD21A70470000FF03000006
:102A100051434343C9188C46110C83B24B4310B445
:102A2000040C614392B280B2504362431C041B0CFD
:102A3000001910BC59411304120CC01851416144D3
:102A400070470000132310B51C781348FFF728F8CF
:102A5000012C0BD004DD01008022104800F044F866
:102A60000F48FFF715F80F4B186010BD0B4C010015
:102A70005422200000F038F80B4B6365A365E36532
:102A800023666366A366E36623676367A367E367FA
:102A90002362E361E4E7C04653460000D00500200E
:102AA0004C330000E0080020AD2A001007B5604656
:102AB00001880A0A0230DF2AFAD1C9B2820804D397
:102AC000028840880004104300E00068014A50502A
:102AD000039007BDD005002001480421014B184791
:102AE00020030020B11A0010014B5B68184700005A
:102AF000200300207047C046F8B5DE4657464E46D4
:102B00004546E0B599460D9B0700884693469B07CE
:102B100028D00B9B002B3CD016000B9C0A9D36192D
:102B2000321B013C4B464146285DB847002CF7D18B
:102B300035000D9B9B070ED55B46EC1A0C9BA34200
:102B400009D91E002A004B46414620200134B847CF
:102B50000135B442F6D32800F0BCBB46B246A946C4
:102B6000A046F8BD0B9B0C9A934214D213005D460D
:102B70000C000B9A9E1A76192A004B46013521004B
:102B80002020B847B542F7D10B9BA046002BC4D1FB
:102B9000E1E71500CDE75E46002BBED15D46DAE7E2
:102BA000F0B54F46D6464646C0B584B09C460EABFF
:102BB0001F78129B9146BA460D9C109E119D9B0753
:102BC0004CD4002D41D1B44248D20123129F1F4062
:102BD000B8460C9B5F1E302303E001343B55A642F0
:102BE00001D9202CF9D14346002B00D187E00C9B62
:102BF0005F1E3023A54204D830E001343B55AC427F
:102C00002CD0202CF9D1129BDB060DD5129B5B0535
:102C100057D4A64267D0A54265D00F9B102B53D046
:102C2000022B5BD0202C36D12023129C01930C9BCD
:102C30004A460093039463460295FFF75DFF04B094
:102C4000E0BCBA46B146A846F0BD0123129A134033
:102C50009846012313422DD1B442BAD3129BDB060E
:102C60001ED5129B5B05D8D4002CD2D10F9B102B04
:102C700060D00F9B022B71D0302301240C9A13706B
:102C80005346002B11D1129B5B0740D52B260C9A83
:102C9000631C1655C9E72300013430260C9AD6541C
:102CA000202CC1D05346002BEDD02D260C9A631C4E
:102CB0001655BAE7002F34D0013DB44200D288E760
:102CC00095E70F9B102BAFD1129B9B063CD5202C78
:102CD000AAD058230C9A13550134A3E7202CA3D073
:102CE0002300013407E0631E012CBFD00F9A102A85
:102CF00036D0022AD1D162260C9AD65492E7129B82
:102D0000DB06CDD5129B5B0500D482E785E7129ADE
:102D10002300160700D488E720260C9A01331655A5
:102D200083E70C2313405F1EBB41ED1AB44200D26F
:102D30004FE75CE7129B9B060ED478230C9A022483
:102D40001370302353709BE7202C00D16CE778235D
:102D50000C9A1355013465E75823EFE76033EDE72C
:102D60000C9AA61EB618129A920602D558223270F4
:102D700093E77822327090E710B5002800D110BD9B
:102D800001F092FBFBE7C04610B5002803D04A686B
:102D90000B681100984710BDF0B54E46DE46574609
:102DA0004546E0B595B083468946924698461E9AB8
:102DB0001F9B10001900209EFFF7CFFA002800D0BB
:102DC000D2E11E981F990122C44B5242FFF7AAFA82
:102DD000002800D001E11E981F990122C04B5242E9
:102DE000FFF7B6FA002800D0D6E01E981F990022FF
:102DF000BC4BFFF7ADFA002800D0B5E01E981F9934
:102E00000022B94BFFF78EFA002800D0ACE01E98E4
:102E10001F9900220023FFF785FA002800D0D1E097
:102E200000230B93229B5B0500D40626002430234D
:102E300006E006AA013417321355013E202C01D0BA
:102E4000092EF6D81E981F99FFF7B0FAA74BF2008B
:102E50009B180CCB050008920993FFF78FFA02002C
:102E60000B001E981F99FFF7EAF9089A099BFFF7D4
:102E700016FA06900791FFF7BDFA0700FFF77AFAF6
:102E800002000B0006980799FFF7D9F90022984B2A
:102E900006900791FFF75CFA002800D1E9E00137BE
:102EA0003800FFF767FA02000B0008980999FFF74E
:102EB0003FFA002801D000270135002E00D1B7E0ED
:102EC000069513E0172306AA9B180A21380001343F
:102ED0001D19FEF779FF3031297038000A21013EB3
:102EE000FEF772FF092F00D8E1E00700202CE9D19E
:102EF000069D20240CAB0693172706ABFF180DE0A8
:102F000028000A21FEF738FF0134303128003955F6
:102F10000A21FEF731FF051E00D1B7E0202CEFD1CA
:102F20000323229A1340012B17D1219B002B14D08D
:102F30000B9B002B00D1E3E0219B013B2193202B35
:102F40000BD93023219A06E006A9013417310B551D
:102F5000944200D3A0E0202CF6D1229B019403934D
:102F6000219B0293069B21E0229B52460493219BC6
:102F70004946039358461E9B1F9C0296009301945A
:102F8000434600F043F90400200015B0F0BCBB46F6
:102F9000B246A946A046F0BD229B5B070FD4032290
:102FA000544B229901920391219902910093524628
:102FB000434649465846FFF79FFD0400E4E70422D4
:102FC0004D4BEEE71E9A1F9B00200021FFF737F9BB
:102FD00001231E901F910B9324E70223229A54464B
:102FE0001A40229B06929B0700D1ACE02600434D7D
:102FF00008942F1F3200E87843464946013DD847E0
:103000000136BD42F6D1089C069B0434002BBBD090
:103010005746219AE31B9A42B6D91500220043462F
:10302000494620200134D847E31BAB42F6D3ABE737
:103030002800FFF7A3F902000B001E981F99FFF765
:10304000FEF82B4B002206000F00FFF76BF90CABCC
:103050000693002800D04FE7002230003900244BAF
:10306000FFF776F9002800D046E7012301359D439C
:1030700042E70022069807991D4BFFF753F90028F5
:1030800000D01AE7002F59D1013716E70323229AFF
:103090001340012B00D1A6E0202C00D15DE70B9B53
:1030A000002B3AD02D23069A1355013455E7069D7F
:1030B000202C00D11DE73023361906E006AA013482
:1030C00017321355202C00D113E7A642F6D12E2338
:1030D0000CAA0134069293550EE7C046FFFFEFFF9E
:1030E000FFFFEF7F65CDCD4165CDCDC1984E00107E
:1030F0000000E03F744C00106C4C00107C4C001041
:103100000C23229A134257D0219B013B2193A342C7
:1031100000D916E7202C00D11FE7229B5B0704D5BE
:103120002B23069A1355013417E7229B1B0700D463
:1031300013E72023069A135501340EE7FB0700D44A
:10314000BBE60137B9E6219B042B00D84EE7554674
:103150004F46043CE4182A0043460135390020203C
:10316000D847AC42F7D141E70227229B55461F4082
:103170009B0726D006975F46234EEC1C2A00B078AA
:10318000434649460135B847013EAC42F6D1069F59
:10319000002F00D1F8E65746219AE31B9A4200D847
:1031A000F2E6150022004346494620200134D84764
:1031B000E31BAB42F6D3E7E6219BA34200D9C0E66E
:1031C000CBE6219B032BD5D9069754464F46033DAA
:1031D000ED1822004346013439002020D847A5428B
:1031E000F7D1069FC6E7219B002B00D154E70B9B2C
:1031F000002B85D0219B013B21939C4200D2A0E66D
:10320000202C00D04EE7A8E6784C0010F0B54546DB
:10321000DE4657464E46E0B59BB0249C259D82462F
:1032200088469346994622002B0020002900FFF78C
:1032300094F8002800D0C1E00122200029007C4B36
:103240005242FFF785F8002800D0B7E001222000A5
:103250002900784B5242FFF765F8002800D0ADE016
:103260000022002320002900FFF75CF8002800D08E
:10327000BBE108940995089809998023289ADB00F6
:103280001A400F928022289E1201164032000E969C
:10329000289E0F000A901E4200D0A4E00B000343BA
:1032A00000D0CBE0002A00D012E232000633269391
:1032B000022313400C930223134200D00AE2279BFF
:1032C000042B00D215E200270426043B0E930022B3
:1032D000002320002900FFF725F8002800D0C8E1CE
:1032E000554B289A134004930E9B0393269B0293FD
:1032F000089B099C0093019441464B465A46504610
:10330000FFF74AFD02002020289B00250340594278
:103310004B415B421840531C089341464B46453095
:10332000D047FB17FC185C40FB0F1F270A93731E46
:103330000E930AABFF1806E020000A21FEF744FDB9
:103340000400202D08D00A212000FEF73DFD0135A4
:1033500030317955092CEFD8052306930E9B56463C
:103360000593002304930A3303930A9B4146029377
:1033700012AB009330004B46089A0195FFF710FC02
:103380000C9B002B28D05F46279BC41BA34223D94C
:1033900082461D003A194B46414620200134B04771
:1033A000A542F7D850465946279C421A01320023BD
:1033B000944200D395E1013018180DE0289B009449
:1033C00001950493279B0393269B02934B465A46F1
:1033D00041465046FFF7E0FC1BB0F0BCBB46B2468E
:1033E000A946A046F0BD01432AD10E9B3200002B16
:1033F00000D15DE70027269B0026BB4200DD82E16D
:103400000022002320002900FEF78CFF002800D0B6
:103410004BE1289B084A02961A408023DB001343A5
:103420000493279B0393089B099C00930194CDE789
:10343000FFFFEF7FFFFFEFFFFFF7FFFF062326935E
:10344000B24B7800400DC018FEF798FFB04AB14B60
:10345000FEF725FFB04AB14BFEF7FAFE3F03B04B33
:103460003F0B3B430C900D9100220A981900AD4B85
:10347000FEF7E5FEAC4AAD4BFEF711FF02000B0074
:103480000C980D99FEF7E4FEFEF790FF0700FEF79B
:1034900075FFA74AA74B0A900B91FEF700FF002289
:1034A000A54BFEF7D5FEFEF781FFA44A06000A9859
:1034B0000B99A34BFEF7F3FE0A900B913000FEF739
:1034C0005DFFA04AA04BFEF7EAFE02000B000A983F
:1034D0000B99FEF7B4FE02000B000A900B91FEF769
:1034E000DEFE0C900D910A980B9902000B00FEF77E
:1034F000AFFE0022109011910C980D99934BFEF79E
:10350000B0FE0022924BFEF7A3FE02000B000C98C7
:103510000D99FEF7A6FE00228E4BFEF799FE0200E3
:103520000B000C980D99FEF79CFE0A9A0B9B0C90D1
:103530000D9180210020C905FEF781FE02000B00DD
:103540000C980D99FEF784FE02000B00109811995B
:10355000FEF787FE0022724BFEF77AFE7E4B0022BA
:10356000F6183305FEF79BFE02000B000A900B9144
:1035700008980999FEF7D6FE002808D00A980B99FA
:103580000022734BFEF76DFE0A900B91013F0A99E2
:103590000B9A0B0011003A006332C62A12D802229D
:1035A0002898042610400E9A0C90002A26D1279BBA
:1035B000042B05D9002800D0A1E0279B043B0E93E3
:1035C000042642E00222289810400E9A0C90002A0D
:1035D00013D1279B052B00D889E0002800D084E078
:1035E000279B0526053B0E9332E080231B069C4655
:1035F000AC446346089409933DE605260B4300D18D
:10360000F9E608980999554A554BFEF799FE0028A6
:1036100008D0089809990022524BFEF783FE002833
:1036200000D0E8E6269B002B34D00F9B002B31D036
:10363000269B013B2693279BB34204D90C9B002B6E
:1036400059D002230C9300230E93002F00D13EE6A5
:103650000A9A0B9B08980999FEF703FE002208902E
:103660000991002320002900FEF75CFE002800D10C
:1036700036E6089C099D289A80203B4B00061340A3
:10368000220004930E9B0393269B02932B18009217
:10369000019331E6279BB342D5D90C9B002B2AD04E
:1036A00000230E9302330C93CFE7289B2E4A8020F1
:1036B000089C099D1A408023DB00134322000493D9
:1036C000279B000603932B180092019302967DE638
:1036D000052695E600230E930233002704260C935B
:1036E000F5E54B1E1B191B1A65E602230C930526F4
:1036F000AEE70423E7E5279B9B1B0E93A5E7022378
:1037000004260C93A1E7DB1B5E1E79E601FCFFFF9C
:10371000FB799F501344D33FB3C8608B288AC63FC0
:103720000000F03F0000F83F61436F63A787D23F7E
:1037300071A379094F930A400000E03F1655B5BBCD
:10374000B16B0240EF39FAFE422EE63F00002C40FA
:103750000000244000001840FF0300002D431CEB34
:10376000E2361A3F80842E41FFF7FFFFF0B557463F
:10377000DE464E464546E0B5A3B01F002C9B924660
:103780000C93C94AC94B8B460B901A60002900D193
:10379000BFE1002338789946002800D1C1E1C44B2D
:1037A0004C460993C34B0E935B460A9308E02200F4
:1037B00053460A990B9DA84701343878002876D0E3
:1037C00001372528F3D110239B46083B9946043B3B
:1037D0009846033B002602259C463878791C030056
:1037E000203BDBB2102B03D8099A9B00D3589F468D
:1037F0000300303B092B36D900252A2800D1A7E049
:1038000000230D932E283FD00300683BDBB2122B20
:103810001BD80E9A9B00D3589F4663460F001E4349
:10382000DBE70F002E43D8E743460F001E43D4E7E3
:103830005B460F001E43D0E74B460F001E43CCE70C
:10384000802378785B001E4301310F00672845D83C
:103850002428ACD90300253BDBB2422BA7D89649DC
:103860009B00CB589F460025AB005D196D002D18BD
:1038700008780F000300303B303D0131092BF3D9AC
:1038800000230D932E28BFD1302280205242904633
:10389000C000064378780B0080444246092A00D8CD
:1038A00051E12A2800D15EE10F000131ACE70A9B0B
:1038B000A1469B46CA4503D801235B42534499461F
:1038C00053464A46594600200B9DA847200023B086
:1038D000F0BCBB46B246A946A046F0BD0300693B1A
:1038E000DBB20F2B00D962E7012199408846734A69
:1038F00011408B46110042460A4200D013E10A2BC8
:103900002FD0072B00D052E70C9D01CD002800D10D
:1039100034E121231E43B0461F260D9A12ABF61840
:10392000A14694465946340002E0000920290AD0F5
:103930000F26064032003732092E00D8073A0131EF
:1039400062540F28F1D863464C468B460D9322E112
:103950000C9B20CB002D52DB78780C930F000131AB
:103960004EE70C9B0D9904CB90469B46002900D155
:1039700028E1434618784144002801D100F029FC91
:103980000D9A94460A0004E059780133002900D1C9
:1039900095E19A42F8D163460D934346D31A0F93AB
:1039A000730500D46CE10F9B0D9A934200D90F92DE
:1039B00002231A0032400C92334200D191E20C9360
:1039C0000D9BB9461E1943461B1BA84622001F002B
:1039D0000B9D08E0541C53460A99A847385D0028FF
:1039E00000D163E122009642F4D145464F463400AF
:1039F0000C9B002B00D097E15B460C93DDE6022286
:103A0000787816430F006D420C930131F8E6787810
:103A10006C2800D159E180235B001E43013114E77B
:103A200080239B0078781E4301310EE77878682860
:103A300000D150E1802301311E4306E7672800D101
:103A4000C2E0472800D134E1452800D134E1072104
:103A50000C9B0D9A07338B43190004960395029231
:103A60000CC90B98009201930C91220053460A99BD
:103A7000FFF7CCFB0400A0E6462800D1A8E0072110
:103A80000C9B0D9A07338B43190004960395029201
:103A90000CC90B98009201930C91220053460A998D
:103AA000FFF77AF9040088E66D370010C808002097
:103AB000FC4C0010404D00108C4D00104190000057
:103AC0002200534625200A990B9DA847013474E62D
:103AD0000C9B04339B46631C9846B60700D4FFE05A
:103AE0000C9B220018780A9953460B9EB047641924
:103AF000012D00D849E245460B9EB8460A9F2A0090
:103B00005346013539002020B047A542F7D147463A
:103B100072E7DB4B38780B9300239946002800D0DE
:103B20003DE60024C6E66F2855D000D8BCE210233D
:103B3000782800D19EE09E430A239C4600230F93E1
:103B40000A339B464DE000218A005218520001338F
:103B50001118187830390200303A092AF4D90D9139
:103B60001F00591C50E60C9BB87804CB0237D14398
:103B7000C9170A400D920C93791C45E610233000BA
:103B8000984311331843802380463000DB001840EF
:103B90001E4200D1C0E643460693082305930D9BC1
:103BA0002200049310230393002302935B460193A6
:103BB0001AAB00930A9953460B98FEF7F1FF0C9548
:103BC0000400FAE50139D4E680231B011E433EE7D9
:103BD00020231E4353E708239C4600230F930833FA
:103BE0009B4680233000DB0018401E4200D11AE1C2
:103BF0000D233100994380230A009B001A4091460F
:103C0000194200D0C3E180230A005B001A409046AD
:103C10000C9A04320F92194200D08FE24B0600D565
:103C200097E10B0600D4E5E20C9B1B8899464B46B6
:103C3000002B00D005E210339943002800D100E2A8
:103C4000002398460D9B069104935B460393002343
:103C5000059502934346D9E0582808D0622878D1C8
:103C600002239C4600230F9302339B46B9E720238F
:103C70001E43103B9C4600230F9310339B46B0E736
:103C800002231A0032400C92334200D105E20C9319
:103C90004346B9460B9E0A9FA8461D1B2200534669
:103CA00039000134B047285D0028F7D145464F461A
:103CB0009EE680231B011E4320231E43C7E6624667
:103CC0000D9242469B1A0F936AE6C0239B00B87878
:103CD0001E43F91CB9E5C023B8781E43F91CB4E5AE
:103CE000012D00D84AE1631E9946A9444B4652462D
:103CF0002600A146BA461C001700A8460B9D3200BC
:103D00003B00013620200A99A847A642F7D13B0084
:103D100057469A464C460C9B320018780A995346EF
:103D20000B9D4444A84767E6A0460F9B9D4200D8E0
:103D300062E62C190B9E4546B8460A9FE41A2A00F3
:103D40005346013539002020B047A542F7D14746F8
:103D500052E680233200DB001A4090461E4200D11A
:103D6000F3E011218E43B4469846802362469B00BF
:103D70001A40934662461A4259D180235B001A408A
:103D800091460C9A04320F9262461A4200D0A0E18A
:103D900063465B0600D5D4E063461B0600D412E2FE
:103DA0000C9B00229B5ED8171918414089B2DA0F8C
:103DB0000C92002B00D187E188461F2612ABBB4630
:103DC0001495F71845464E46E046A14606E0280001
:103DD0000A21FDF7F9FF0500202E08D00A2128004E
:103DE000FDF7F2FF01363031B955092DEFD84C46B9
:103DF000C446B1465F46149D634606930D9B0595E8
:103E000004930A2303930C9B02934B4601931AAB32
:103E1000220000930A9953460B98FEF7C1FE0F9BB0
:103E200004000C93C9E40C2331009943E3E6082213
:103E3000072191460C9B07338B4399444A460ACB92
:103E400008000C92DA0F9346184300D085E0002357
:103E500099464346002B2FD1002200231092119344
:103E600000231F26994612ABF6185B461495BB46F5
:103E7000E04637000F934E46A146109C119D05E089
:103E8000F52A001004000D00202E0CD00A22002379
:103E900020002900FDF7D6FF01363032BA55002D3B
:103EA000F0D1092CEED80F9B109411955F464C462B
:103EB000C446B1469B46149D634606930D9B0595EB
:103EC00004930A2303935B4602934B4601931AAB78
:103ED000220000930A9953460B98FEF761FE0400F6
:103EE0006BE40F9B9D4200D896E18023DB000C938E
:103EF0000F9B2E19F61A43460F930D9BA846994621
:103F00005346BA461F000B9D22003B00013420207F
:103F10000A99A847B442F7D10F9B454698464B46AD
:103F20000D933B0057469A4643461878002800D127
:103F300062E56B1C0F930C9B002B00D1A8E60023BD
:103F40003DE50C9B1B78190031E710239E43B446D6
:103F50000BE70C9B1B78994669E6DA1712921392CD
:103F60004A401092129813990A005A401192109ADE
:103F7000119B121A8B411092119371E70C9B220036
:103F800018780A9953460B9CA047444634E508220A
:103F9000072690460C9B0733B343984442460C9245
:103FA0001A685B68149208931300089A134305D1AA
:103FB0001033994300239846002838D161208B069E
:103FC00000D5412000231F2698465A4612ABF6180A
:103FD000030018920F9A0A3BB14616951794199749
:103FE0004446664690469B46149F089D159103E003
:103FF00007000D00202C13D03200002338002900C8
:10400000FDF720FF5B46D2B2D318092A01D813006E
:1040100030334A4601341355A845E9D1BE42E7D9A9
:10402000189BA0469B461599169D179C199F0D9BA2
:10403000069104935B460393002305950293434640
:1040400044E761208B0600D541201F2612ABF218F1
:1040500003000A3B0C934B464646A146A8461C006B
:104060005D461491BB46170002E00400202E0DD0DF
:1040700029002000FDF7A8FE0C9BCB18092901D8C8
:104080000B0030330136BB55AC42EED25F464C4696
:10409000AB4614994546B046D4E50F9B9D4200D9E6
:1040A00026E701330F93F3E5102332009A43944639
:1040B000692800D0A2E080233200DB001A4090463D
:1040C0001E4200D151E64CE64346002B00D093E659
:1040D00073E60C9B1B68DA0F002B70D0D9175B18A6
:1040E0004B4098461F2612ABF618A14614955C4625
:1040F0004546BB46E04637000C9206E028000A2100
:10410000FDF762FE0500202C08D00A212800FDF7EB
:104110005BFE013430313955092DEFD85F46C44676
:10412000A3464C46149D0C9A634606930D9B059539
:1041300004930A23029203935B4667E60C9B1B6879
:104140009846002B03D11033994300282DD16120CC
:104150008B0600D541201F2612ABF61803000A3B40
:104160004A460C93149143463100A846A1465E4648
:104170001400BB461D000F0002E00500202C0DD0EE
:1041800031002800FDF720FE0C9BCB18092901D82F
:104190000B00303301343B55B542EED223005F466D
:1041A0004C464546B346994614990D9B0691049397
:1041B0005B4603930023059502934B4626E6434650
:1041C000002BB1D18EE70C9B1B68D8171918414002
:1041D000EDE580233200DB001A400F921E420FD023
:1041E0000230020032400F92304219D00023A04624
:1041F0000F939AE50C9B1B68994618E516009BE403
:1042000002231A0032400C92334200D08CE5002D7C
:1042100000D06DE6FFF7F0FB01330F93FFF7D0FB03
:104220000C93F4E700B585B003910121029000934F
:10423000034813004A4202A9FFF798FA05B000BDEF
:10424000892D001010B5094A0300146884B0002CB1
:1042500008D0012200910648524203A9A04701203C
:1042600004B010BD00F06AF90020F9E7C80800208A
:10427000792D001000BEFDE710B5FFF7FBFFC0462B
:1042800070B5FDF753FC074D074EB54209D2002427
:10429000013E761BB608013608CD01349847B4427A
:1042A000FAD170BD444B00104C4B0010030010B508
:1042B000080011001B68984710BDC046F8B5437D43
:1042C00007000D001600002B38D0002A1ADD0B78ED
:1042D0000A2B18D00020012E09D0012421006B5C8C
:1042E00001340A2B1AD0B442F8D1864203DD311AC8
:1042F0003B6828189847AD19013D2B780D3B5A4271
:1043000053413B75F8BD037D002BE3D102210E48DC
:104310003B689847012EEED00120DEE76B1E5B5C08
:104320000D2BE0D0884203DA091A3B682818984719
:10433000054802213B6898472000D4E70368110034
:1043400028009847DEE7C046E84E0010F0B5C646A4
:104350000B6807000D0000B5802B06D05A1C2A60A0
:10436000ED182F7180BCB846F0BD0F4B1C68002CB7
:1043700016D00B1D98460D4E02E02469002C0FD07C
:104380002368002BF9D03368002B01D0A342F4D16D
:10439000200041462A68FFF791FF2469002CEFD1E5
:1043A00001220023DBE7C046C0080020C40800202B
:1043B000F0B54646D6464F46C0B582B090461C0082
:1043C00006000D00FDF7FEF900232F4A12184B419D
:1043D000002B02DA01222D4B52422D4908008A4659
:1043E00000F08AFB81466B1C03D1300000F0D2FA4A
:1043F0000500002C27D0274F274B1C68002C18D015
:104400004346002B21D1254B984602E02469002C1D
:104410000FD02368002BF9D043461B68002B01D036
:104420009C42F3D120002A003100B8472469002CB7
:10443000EFD14B46002B23D1280002B0E0BCBA4696
:10444000B146A846F0BD164FD6E7144B984602E099
:104450002469002CEDD02368002BF9D043461B685B
:10446000002B01D0A342F3D12A0031002000B8472D
:104470006B460A222000DA71D91D093AB847E7E7EE
:10448000504600F019FBD7E740420F00FFFFFF7FC7
:104490003C030020BD420010C0080020C4080020DA
:1044A000AD42001000207047F0B5CE46474680B5BB
:1044B00083B06B460600DD1D2870FDF783F90023ED
:1044C000194A12184B41002B02DA0122174B5242B3
:1044D00017490800894600F00FFB164B80461C6800
:1044E000002C14D0144F02E02469002C0FD0236854
:1044F000002BF9D03B68002B01D09C42F4D1200066
:1045000001222900FFF7DAFE2469002CEFD143468F
:10451000002B05D1300003B0C0BCB946B046F0BD99
:10452000484600F0C9FAF5E740420F00FFFFFF7F61
:104530003C030020C0080020C408002070B504001F
:1045400000F028FA01230100050001222000FFF7F6
:104550002FFF084B1C68002C06D06368002B05D089
:1045600098472469002CF8D1280070BD2469002CDC
:10457000F3D1F9E7C0080020F0B5CE46474680B534
:10458000A3B004000E00FDF71DF90023264A1218FF
:104590004B41002B02DA0122244B5242244800F006
:1045A000ABFA00232200019380463300214801A981
:1045B000FFF738FE204F019B81463C68002B19D045
:1045C000002C2FD01D4E02E02469002C0FD0236850
:1045D000002BF9D03368002B01D0A342F4D1200086
:1045E000019A02A9FFF76AFE2469002CEFD100238B
:1045F0003C680193002C06D06368002B0CD09847D0
:104600002469002CF8D14346002B07D1484623B03B
:10461000C0BCB946B046F0BD2469EBE7044800F0E1
:104620004BFAF3E70194EEE740420F00FFFFFF7FF4
:104630003C0300204D430010C0080020C4080020A7
:104640000FB400B583B004A901C90191FFF794FF2D
:1046500003B008BC04B01847F0B54E464546DE46E8
:1046600057468446E0B585B098460EAB91461A7819
:104670006346080019680023CB6601334860CB66A7
:1046800043460392002B4EDD01275E1E63468024C5
:1046900057401A79A24680254C46920200201023EA
:1046A0009146AD000194841B62426241019C3A40F4
:1046B000245C520222434C462243019C0A614A6B0D
:1046C0001342FCD052468A5801949146002A10D1D8
:1046D000B04223D00022013091468045E3D16346A9
:1046E000039A1A7105B0F0BCBB46B246A946A04673
:1046F000F0BD4A6D012293464A6B2A42FCD00A6EF5
:104700005A460194002AE5D04C46002C03D00923D8
:104710002340082BE3D001204042E0E7039A002A1F
:10472000D8D19346E8E70020D9E7C046F0B5D64691
:104730004F4646468246C0B505200C00FDF742F9BB
:104740000500600821004019FDF73EFB47003F18B7
:10475000060005213800FDF737FBA0461C4B321A36
:10476000040068009146401998452BD81949FDF777
:104770002BFB0130534600221B68DA6619680432AD
:10478000514002320A408021490159180A604A46C4
:10479000DA6101221C624F2F00D92209A0215A5050
:1047A000DA6F310050400C4A00049A18000C106077
:1047B00001222800DA66FDF707FBE0BCBA46B146E5
:1047C000A846F0BD0549FDF7FFFA0130D2E7C04623
:1047D0003F420F00809698007C10000040787D01D9
:1047E0000F4A70B5821A531E9A410E4BD2000832FE
:1047F0001A600D4B0D4C1A60150023689D432B1E4B
:10480000FAD166240268FF340571D5661460633CF2
:104810008833FF3CD5639563D450FFF787FF70BDA5
:104820003003002000E0004000F0004008C00040DD
:1048300010B582B06C46247C0094FFF70DFF02B0E7
:1048400010BDC046F0B5454680463B4A4E46DE4662
:1048500057464244531E9A418023E0B55B0212043E
:10486000D218364B83B01A60354B894635491A60E9
:1048700015000B689D43FBD10620FDF7A3F84346C6
:104880005A6802231A4000922F4A8026424413603D
:104890004B468246D90D580201920B0002000224B9
:1048A000760006E0924506D3023412184B41B4421A
:1048B00001D0002BF6D080272602361B7F0002E0B5
:1048C000361B012F36D031005046BB46013FFDF765
:1048D0007BFA8145F4D2594661433D0243461C614F
:1048E0001B68FF226B40802512026D011340454476
:1048F000164A2B60009B4244136002204346019CF1
:104900005B6820604446266807246640C83434400B
:104910002C600324034013600D4B43441C60106063
:104920005046FDF751FA03B0F0BCBB46B246A9466B
:10493000A046F0BD2100D1E70040FCBF00E00040F0
:1049400000F0004008C000400430000004200000D7
:104950002420000010B5010000230022002000F0F8
:1049600047F810BD70B5074C074D641BA41005D067
:10497000013CA300EB589847002CF9D100F098F8BF
:1049800070BDC0464C4B00104C4B00107047C046E9
:104990007047C04610B583070AD00300032102E028
:1049A00001330B4205D01A78002AF9D1181A10BD2C
:1049B000030019680C4A0D4C8A188A4322420FD111
:1049C0005968094A04338A188A43224208D159682F
:1049D000054A04338A188A432242F1D000E00133A9
:1049E0001A78002AFBD1E1E7FFFEFEFE808080807E
:1049F000F0B5D6464F4646469846244BC0B506000D
:104A000018689A460F009146FFF7C0FF204B1D68BB
:104A1000002D32D053466C6818681F2C30DC002EF5
:104A20000CD1631C0234A4006B606751FFF7B0FF28
:104A30000020E0BCBA46B146A846F0BD49468822EF
:104A4000A300EB189950C42149008C46AC44614640
:104A5000873AA24009689146114362461160842159
:104A6000424649005A50022EDBD129004A468D3178
:104A7000FF310B6813430B60D3E7064D1D60C9E798
:104A8000FFF786FF01204042D3E7C04638030020ED
:104A9000EC060020F0060020034B10B5002B02D0DE
:104AA0000248FFF757FF10BD0000000065490010E5
:104AB000F8B5C0460000000001B40248844601BCBD
:104AC000604700BF5901002001B40248844601BC80
:104AD000604700BF2D02002001B40248844601BC9B
:104AE000604700BF2D02002001B40248844601BC8B
:104AF000604700BF8101002001B40248844601BC28
:104B0000604700BFC1000020551B0010811B001032
:104B1000691D0010D92A00100D240010452A00102C
:104B2000911C00109D1B0010BD1B0010D11B00101C
:104B30003D0F0010D91B0010B11200101D1B0010FA
:0C4B40006D0E0010994A0010FD020010DC
:104B5000486F6D650000000041646420776F726BE0
:104B60006F75740053657474696E6773000000009C
:104B700052656164696E6720726F77733A202564AD
:104B80002025642025640A002020202020202020C9
:104B90002020202020202020202020200000000095
:104BA0003E0000003161626300000000326465660F
:104BB000000000003367686900000000346A6B6C15
:104BC00000000000356D6E6F0000000036707172DD
:104BD00000000000377374750000000038767778A5
:104BE0000000000039797A30000000000A2A2A2AE1
:104BF0002050414E4943202A2A2A0A000A00000078
:104C0000486172647761726520616C61726D202504
:104C10006420616C726561647920636C61696D65A3
:104C200064000000486172642061737365727400EF
:104C300052656C6561736500626F6F74325F7732C5
:104C40003571303830000000322E322E3000000036
:104C50007069636F00000000626C696E6B00000099
:104C6000536570203135203230323500666E692B45
:104C700000000000666E69006E616E00666E692D50
:104C800000000000080052501A100200584B00109B
:104C90000100000000000000644B00100100010052
:104CA000000000000040145406005250D3F075423A
:104CB000304C001006005250E182887F384C0010C2
:104CC00006005250ABB36053484C001006005250DF
:104CD000BBFF3CB6504C001006005250861C03022D
:104CE000584C0010060052505422A29D604C0010F7
:104CF00005005250DE65F4689051001038380010FD
:104D0000F0370010F037001030380010F037001086
:104D1000F0370010F0370010F0370010F0370010B7
:104D2000F0370010F037001028380010F03700106E
:104D300022380010F0370010F03700101A38001039
:104D40002C3A00104A380010203A00104A3800105F
:104D50000E3A00104A3800104A3800104A38001045
:104D60004A3800104A3800104A3800104A380010FB
:104D7000403800104A3800104A3800104A380010F5
:104D80004A3800104A38001040380010C03A00106D
:104D9000AE370010AE370010AE370010AE3700103F
:104DA000AE370010AE370010AE370010AE3700102F
:104DB000AE370010AE370010AE370010AE3700101F
:104DC000AE370010AE370010AE370010AE3700100F
:104DD000AE370010AE370010AE370010AE370010FF
:104DE000AE370010AE370010AE370010AE370010EF
:104DF000AE370010AE370010AE370010AE370010DF
:104E0000AE370010AE370010AE3700103C3A00103D
:104E1000783A00103C3A0010AE370010AE37001060
:104E2000AE370010AE370010AE370010AE370010AE
:104E3000AE370010AE370010AE370010AE3700109E
:104E4000AE370010AE370010AE370010AE3700108E
:104E5000AE370010AE370010583C0010AE370010CF
:104E6000AE370010AE370010AE370010AE3700106E
:104E7000AE370010AE370010AE370010AE3700105E
:104E8000583C0010D03A0010583C00103C3A00103A
:104E9000783A00103C3A0010000000000000F03F9B
:104EA0000000000000002440000000000000594005
:104EB0000000000000408F40000000000088C34058
:104EC00000000000006AF8400000000080842E41CD
:104ED00000000000D01263410000000084D7974119
:0C4EE0000000000065CDCD410D0A00006F
:104EEC00844C0010A84C0010B44C0010C04C0010A6
:104EFC00CC4C0010D84C0010E44C0010F04C0010BE
:104F0C00F0B5C646160000B504001F000268EFF3AA
:104F1C00108172B61368002BFCD0BFF35F8F042393
:104F2C00E3562268002B2BDBBFF35F8F0020106051
:104F3C0081F31088D02212061278002552B29046C6
:104F4C009A420ED1002080BCB846F0BDBFF35F8FF3
:104F5C00156081F310883000390000F089F80028C2
:104F6C00F0D12268EFF3108172B61368002BFCD0DD
:104F7C00BFF35F8F237922687F2BE7D9434602E08A
:104F8C00D0231B061B682371BFF35F8F00231360B4
:104F9C0081F310880120D6E70268EFF3108172B616
:104FAC001368002BFCD0BFF35F8FFF2303710368E2
:104FBC00BFF35F8F00221A6081F3108840BF7047E7
:104FCC00F0B54746CE468846140019001A0080B545
:104FDC001F00042302269C46002F32D000292ED01D
:104FEC00C3681E4219D00B00083393420FD8002A15
:104FFC002CD10223C5682B4233D1002921D0C368A0
:10500C0000221E42FBD00B0008339342EFD94346DB
:10501C001B780139836001239844002AEDD0654642
:10502C00C3681D4215D10029DAD10421C368194285
:10503C00FCD08368013A2370002A02D00134002A84
:10504C00F3D13800C0BCB946B046F0BDC3685B07AD
:10505C00C6D58368013A237013000B43F1D0013499
:10506C00BCE70D000835D2D1C4E7C0467047C04636
:10507C0001B40248844601BC604700BFA116001071
:10508C00A44B001000000000000000000000000015
:10509C00AC4B0010000000000000000000000000FD
:1050AC00B44B0010000000000000000000000000E5
:1050BC00BC4B0010000000000000000000000000CD
:1050CC00C44B0010000000000000000000000000B5
:1050DC00CC4B00100000000000000000000000009D
:1050EC00D44B001000000000000000000000000085
:1050FC00DC4B00100000000000000000000000006D
:10510C00E44B001000000000000000000000000054
:10511C0000000000310B001000000000150C001006
:10512C00A10B0010190C001000000000690B0010FE
:10513C000000000001100000000000000000000052
:10514C0000000000000000000000000048030020E8
:10515C00503300004C330000543300005233000035
:10516C004D5300004D430000533400004334000005
:10517C0000400440000000008008002000000000F7
:04518C00000000001F
:04000005100001E9FD
:00000001FF
